:100000000C9434000C945D000C945D000C945D0025
:100010000C945D000C945D000C9453010C945D00F5
:100020000C945D000C945D000C945D000C9497079B
:100030000C945D000C945D000C94FA060C945D0029
:100040000C945D000C945D000C945D000C945D00BC
:100050000C945D000C945D000C945D000C94B7074B
:100060000C945D000C945D0011241FBECFEFD8E00E
:10007000DEBFCDBF14BE0FB6F894A8958091600086
:10008000886180936000109260000FBE11E0A0E0D4
:10009000B1E0E6EBFCE102C005900D92AC30B10797
:1000A000D9F721E0ACE0B1E001C01D92AE36B20755
:1000B000E1F70E94F20A0C94470E0C940000089598
:1000C00081E00E94730784EF91E00E94BF0280E10B
:1000D0000E94730784EF91E00C94BF02089580E0C2
:1000E00090E008950895AF92BF92CF92DF92EF9281
:1000F000FF920F931F93CF93DF93F89414B817B820
:100100001AB815B818B81BB8529A5A9A14BC85E098
:1001100085BD8FEF87BD82E080936E0010928000D6
:10012000109281002FE83BE03093890020938800F3
:1001300080936F005398239891EA9093B000809336
:10014000B1001092B4001092B3008BE080BF83E046
:1001500080937F0086E080937C0083E880937A0020
:1001600080917A00806480937A0080917A0086FD85
:10017000FCCF10927C0083EA80937A0081E0809328
:100180007B0090E00E94A60D8F3F11F080936600E7
:1001900010925901C1E0C0935801C09357011092C9
:1001A00056011092550180E990E00E94A60D8093BF
:1001B000540180915401887311F0C093540110923E
:1001C0005001109251018FEF80934E0110924F0118
:1001D00010924A0110924B0110924C0110924D0165
:1001E00081E080936D0182E49FE0909353018093BE
:1001F000520180EB90E00E94A60DC82F81EB90E0A9
:100200000E94A60DC09348018093490185E090E0CB
:100210000E94A60D8093470189E090E00E94A60D00
:10022000809346018CE090E00E94A60D80934501EA
:1002300084E190E00E94A60D809344010CE011E05F
:1002400088E2E82E81E0F82E98E2A92E91E0B92EFE
:10025000C0E2D0E0CE010E94A60DC82ECE010196CC
:100260000E94A60DF8018193C1928F01CE01C09624
:100270000E94A60DC82ECE01C1960E94A60DF701C0
:100280008193C1927F012296A016B10619F7789446
:10029000DF91CF911F910F91FF90EF90DF90CF9062
:1002A000BF90AF9008950F920FB60F921F92112436
:1002B0008F930FB6F894A895809160008861809321
:1002C0006000109260000FBE8F911F900F900FBEC4
:1002D0000F9018953C01EB0110E099249A9484E06A
:1002E000C82E96E0A92E93E8B92E38E1D32E49E224
:1002F000E42EE0916D01E730E0F7F0E0E75BF14FCD
:100300000C94200B111102C0F3010995C0926D01EC
:1003100011E0FE010995EDCF80915901811103C1D2
:10032000F894A0927C00B0927A0080917A00806468
:1003300080937A0080917A0086FDFCCF80917800CE
:100340009091790078948B3AE2E09E070CF0E4C03B
:100350008938F2E09F070CF0EDC0873692400CF42C
:10036000E2C0559A549A3B9A3A9A3D983C98C1CF2C
:10037000559854983B9A3A9A3D983C98EFECF7E0A0
:100380003197F1F700C00000559854983B983A987F
:100390003D983C98FFEF21EE84E0F15020408040F2
:1003A000E1F700C00000A5CFF89480B7877F80BF39
:1003B00080917A008F7780937A0014B817B81AB8B2
:1003C00015B818B81BB80FB6F894A895D09260006D
:1003D0000FBEE092600080916000806480936000B6
:1003E00083B7817F846083BFF89483B7816083BFC4
:1003F0007894889583B78E7F83BF78941092590143
:10040000529A5A9A80917A00806880937A0087E5A0
:1004100092E00197F1F700C0000080B7886180BFCB
:10042000559A549A3B9A3A9A3D9A3C9AEFE1FEE4E7
:100430003197F1F700C000008091590181115CC033
:10044000559854983B983A983D983C9852CF809153
:100450006B01811125C01092B3001092B40010926C
:100460006C0147CF4899ECCF559A54983B983A98ED
:100470003D983C988FEC97E00197F1F700C00000A1
:10048000559854983B983A983D983C989FEFE1EEE8
:10049000F4E09150E040F040E1F700C0000029CFC7
:1004A00090916B0180916C01981709F422CF809193
:1004B0006B0180936C0180916B01813009F441C024
:1004C00080916B011092B3009092B400823009F4D5
:1004D00049C09092B3009092B4008FE295E70197E3
:1004E000F1F700C000008091440190914501909384
:1004F000B3008093B400FDCE559A549A3B983A9835
:100500003D983C98FFEF20E782E0F150204080408A
:10051000E1F700C0000094CF559854983B9A3A9A5E
:100520003D983C98E6CE559A549A3B983A983D9817
:100530003C98DFCE559854983B983A983D9A3C9A0F
:10054000D8CE9092B3001092B4008FE295E7019755
:10055000F1F700C00000809147018093B300109232
:10056000B400C7CEEFE2F5E73197F1F700C0000025
:10057000809146011092B3008093B400BACE9C01E2
:10058000892B49F08FEC97E00197F1F700C000004C
:1005900021503040B9F708958093B3006093B400C0
:1005A00008958FEF8093B3008093B4008FEC97E0B1
:1005B0000197F1F700C000008FEC97E00197F1F789
:1005C00000C000008FEC97E00197F1F700C0000039
:1005D0008FEC97E00197F1F700C000008FEC97E0F7
:1005E0000197F1F700C000008FEC97E00197F1F759
:1005F00000C000008FEC97E00197F1F700C0000009
:100600008FEC97E00197F1F700C000008FEC97E0C6
:100610000197F1F700C000008FEC97E00197F1F728
:1006200000C000008FEC97E00197F1F700C00000D8
:100630008FEC97E00197F1F700C000008FEC97E096
:100640000197F1F700C000008FEC97E00197F1F7F8
:1006500000C000008FEC97E00197F1F700C00000A8
:1006600008958091590181111EC0F89487E080930C
:100670007C0083E880937A0080917A008064809384
:100680007A0080917A0086FDFCCF8091780090916D
:10069000790010927C0023EA20937A0021E02093D5
:1006A0007B00789408958FEF9FEF08958091590112
:1006B00081111EC0F89488EC80937C0087E88093B9
:1006C0007A0080917A00806480937A0080917A0029
:1006D00086FDFCCF809178009091790010927C008B
:1006E00023EA20937A0021E020937B0078940895F8
:1006F0008FEF9FEF08951F93CF93DF93E0E0F0E03B
:1007000080E016E0C3EAD3E871E0A1E060E8F89485
:1007100010937C00D0937A0090917A00906490932B
:100720007A0090917A0096FDFCCF2091780030916C
:100730007900217090917A00906490937A00909162
:100740007A0096FDFCCF409178005091790010928C
:100750007C00C0937A0070937B00789441702413DE
:1007600002C06150A1F6211539F02A2F0E2E01C0CA
:10077000220F0A94EAF7822B3196E830F10531F620
:10078000DF91CF911F91089580910001982F990FCB
:10079000990F990F982780916A0121E0280F2093E3
:1007A0006A018695869589279295969597708927EF
:1007B000809300010895809300010895809159016C
:1007C000811116C0F89486E080937C0083E88093C2
:1007D0007A0080917A00806480937A0080917A0018
:1007E00086FDFCCF809178009091790078940895EF
:1007F0008FEF9FEF08950F931F93CF93DF93CDB7A4
:10080000DEB766970FB6F894DEBF0FBECDBF898303
:100810009A83FC010280F381E02DED8BFE8BE4389E
:1008200023E0F2070CF4D4C0FC0100811181809117
:100830000C0190910D018017910708F4ACC1FFEFF6
:10084000FD8380910E0190910F018017910708F4AC
:100850006EC280911001909111018017910708F4E8
:100860006BC280911201909113018017910708F4D7
:1008700068C280911401909115018017910708F4C6
:1008800064C280911601909117018017910708F4B6
:1008900061C280911801909119018017910708F4A5
:1008A0005EC280911A0190911B018017910708F494
:1008B0005BC280911C0190911D018017910708F483
:1008C00060C280911E0190911F018017910708F46A
:1008D000ADC180912001909121018017910708F40A
:1008E00059C280912201909123018017910708F449
:1008F00056C280912401909125018017910708F438
:1009000057C280912601909127018017910708F422
:100910005CC21AE52D812F3F09F406C2622F70E0F8
:1009200080E090E00E944F0C6D837987082F9D87AF
:10093000612F70E080E090E00E944F0C698B7A8B11
:100940008B8B192FED89FE89BF01FF0F880B982F24
:100950000E94510C69837A838B839C839B01AC0139
:1009600060E070E081E694E40E943A0B2D813985C5
:10097000402F5D850E94DD0C6D837E838F83988779
:1009800020E030E04FE254E469817A818B819C81E0
:100990000E943A0B29893A894B89512F0E94DD0C1C
:1009A0009B01AC016D817E818F8198850E943B0BFC
:1009B00020E030E048E453E40E94A70B20E030E060
:1009C00044E052E40E943B0B0E94200C862FE4C0BE
:1009D00080912801909129018E179F0708F4D8C0B3
:1009E00000912A0110912B010E171F0708F4F3C084
:1009F00000912C0110912D010E171F0708F4B9C1A9
:100A000000912E0110912F010E171F0708F4B5C198
:100A100000913001109131010E171F0708F480C1B9
:100A200000913201109133010E171F0708F4AEC177
:100A300000913401109135010E171F0708F4B4C15D
:100A400000913601109137010E171F0708F4B5C148
:100A500000913801109139010E171F0708F4B1C138
:100A600000913A0110913B010E171F0708F4B2C123
:100A700000913C0110913D010E171F0708F4AEC113
:100A800000913E0110913F010E171F0708F4AAC103
:100A900000914001109141010E171F0708F4A6C1F3
:100AA00000914201109143016DE08DE090E00E173E
:100AB0001F0708F493C0198A1A8AF0EDFB8B20E413
:100AC0002C8B8CE08D831E82ED81FE81EE0FFF1F4B
:100AD000E85DFE4F80819181B801681B790B80E051
:100AE00090E00E944F0C9B01AC010E943B0B6D8378
:100AF0007E838F839887ED89FE89BF01FF0F880B66
:100B0000982F0E94510C69877A878B879C87B80140
:100B100080E090E00E944F0C6D877E878F87988BD6
:100B200029893A894B895C896D817E818F8198857D
:100B30000E94DD0C9B01AC016D857E858F859889B7
:100B40000E943A0B9B01AC0169857A858B859C8557
:100B50000E943A0B20E030E040E251E40E94DD0CBC
:100B60000E94190C8B016D817E818F8198850E9476
:100B7000190CAB01C801BA010E940C0B6D832D89C1
:100B80003E892D3B32400CF041C081E2860F04C00B
:100B9000ED3BF24064F481E266960FB6F894DEBF56
:100BA0000FBECDBFDF91CF911F910F910895E981C5
:100BB000FA810081118180910C0190910D018017C3
:100BC000910790F5198A1A8A1B8A10E01D821986EE
:100BD00000E01D86B7CE61E081E090E0FC01319736
:100BE000ED83FE8370E080E00E944F0C20E030E057
:100BF00040E05FE30E94DD0C40E050E09A010E947B
:100C00003B0B698B7A8B8B8B9C8B5ECFE981FA8156
:100C10000081118180910C0190910D018017910745
:100C200008F00FCE10E076CE1D820BCE89E0898BC6
:100C300090E0FC01EE0FFF1FE45FFE4F2081318149
:100C400029833A83FC01EE0FFF1FE65FFE4F808190
:100C50009181B901681B790B80E090E00E944F0CF4
:100C60009B01AC010E943B0B69877A878B879C872D
:100C7000B801110F880B982F0E94510C6D877E8749
:100C80008F87988BE981FA81BF0180E090E00E9414
:100C90004F0C69837A838B839C83F9896F2F70E073
:100CA00080E090E00E944F0C20E030E040E05FE305
:100CB0000E94DD0C40E050E09A010E943B0B298528
:100CC0003A854B855C850E94DD0C9B01AC016981F6
:100CD0007A818B819C810E943A0B9B01AC016D85CE
:100CE0007E858F8598890E943A0B20E030E040E2B3
:100CF00051E40E94DD0C0E94190C8B0169857A85F4
:100D00008B859C850E94190CAB01C801BA010E9419
:100D10000C0B162F8D818F5D6F3F09F0FBCD3CCF03
:100D200064E084E090E05ACF81E2810F35CF21E08A
:100D3000298B81E090E07DCF32E0398B82E090E03A
:100D400078CF83E0898B90E074CF94E0998B84E036
:100D500090E06FCFE5E0E98B85E090E06ACFF6E0C8
:100D6000F98B86E090E065CF27E0298B87E090E063
:100D700060CF62E082E090E031CF63E083E090E01A
:100D80002DCF38E0398B88E090E053CF65E085E0E7
:100D900090E024CF9AE0998B8AE090E04ACFEBE094
:100DA000E98B8BE090E045CF66E086E090E016CFDF
:100DB000FCE0F98B8CE090E03CCF67E087E090E0CE
:100DC0000DCF68E088E090E009CFFDE0F98B8DE081
:100DD00090E02FCF69E089E090E000CF6AE08AE000
:100DE00090E0FCCE6BE08BE090E0F8CE6CE08CE025
:100DF00090E0F4CE1F920F920FB60F9211242F9312
:100E00003F934F935F936F937F938F939F93AF9392
:100E1000BF93EF93FF9380915001909151012091E6
:100E20004E0130914F01820F931F80935001909398
:100E300051018FEF80934E0110924F0187BD809139
:100E40004A0190914B01A0914C01B0914D01019646
:100E5000A11DB11D80934A0190934B01A0934C01B9
:100E6000B0934D018091590181110FC02091520121
:100E70003091530180915001909151012817390709
:100E800020F480916D01843089F0FF91EF91BF9142
:100E9000AF919F918F917F916F915F914F913F9112
:100EA0002F910F900FBE0F901F901895E0910301A6
:100EB000F09104010995009741F30E946F0A811592
:100EC00051F0E0910101F091020109951092500159
:100ED00010925101DACF0E94980D80934E0110922A
:100EE0004F0187BDD2CF80FF11C0559A81FF11C03D
:100EF000549A82FF11C03B9A83FF11C03A9A84FF33
:100F000011C03D9A85FF11C03C9A0895559881FD06
:100F1000EFCF549882FDEFCF3B9883FDEFCF3A9807
:100F200084FDEFCF3D9885FDEFCF3C9808951F924B
:100F30001FB61F9211248F939F93109281001092DD
:100F400085001092840081E08093580180935701BE
:100F50001092590110927C0093EA90937A0080934A
:100F60007B009F918F911F901FBE1F9018951F921D
:100F70000F920FB60F9211242F933F934F935F93CD
:100F80006F937F938F939F93AF93BF93EF93FF9351
:100F9000CF93DF9300D0CDB7DEB72091840030919E
:100FA000850041E040935901809158018115B9F1C4
:100FB0001092850010928400409381001092550198
:100FC00010925801809157018115A1F080917A000B
:100FD00086FDFCCF809178009091790080935C0130
:100FE00090935D0181E080937C0093EA90937A0076
:100FF00080937B000F900F90DF91CF91FF91EF9145
:10100000BF91AF919F918F917F916F915F914F9120
:101010003F912F910F900FBE0F901F901895C9010F
:101020008758910984379940A0F01092810010925E
:10103000850010928400409358014093570110920C
:10104000590110927C0083EA80937A0040937B00E0
:10105000D1CF26583109A4EFB0E00E94FD0A8830B4
:1010600008F46BC04093580180915701811142C030
:1010700080915501E0915601F0E0E25AFE4F8083E5
:10108000809156018F5F809356018C3009F0B2CF6A
:1010900010928100109285001092840040935701B5
:1010A00010925901809168019091690189839A8316
:1010B0008EE591E00E94B609E981FA81E817F90707
:1010C00009F098CF8091670187FF47C098E7980F94
:1010D000933030F0539823981092B4001092B300DC
:1010E00080588B3008F086CFE82FF0E0E05BF14FBE
:1010F0000C94200B80917A0086FDFCCF80917800C3
:101100009091790080935A0190935B0110927C003A
:1011100083EA80937A0081E080937B00909155016F
:101120009115B1F010928100109285001092840008
:1011300080935701109259015DCF21E001C0220F29
:101140008A95EAF780915501822B8093550152CF01
:1011500010925701109256014DCFE0910501F09188
:1011600006016AE571E08EE591E0099543CF809133
:101170005E01823009F4CBC008F0B2C0811509F4D9
:1011800077C080915F0190916001809348019093B6
:10119000490110926B0180916D01863009F42ACFCC
:1011A000539A239A1092B4001092B30086E0809371
:1011B0006D0120CF80916D01863099F0539A239A6A
:1011C0001092B4001092B300559854983B983A98F6
:1011D0003D983C9810926B0110926C0186E08093D0
:1011E0006D0120915E0181E090E002C0880F991F9F
:1011F0002A95E2F7209148013091490182239323F7
:10120000892B99F181E080936B01F4CE82E0809389
:101210006D01F0CE85E080936D01ECCE81E080938E
:101220006D01E8CE10926D01E5CE80916D018330A5
:1012300009F4E0CE80916D01843009F4DBCE539A3D
:10124000239A1092B4001092B30083E080936D0152
:10125000D1CEE0E0F0E0099580916E008D7F809323
:101260006E0016BCE0E0F0E7099510926B01C2CE6B
:1012700080916D01863009F0BDCE6091480180EB10
:1012800090E00E94AE0D6091490181EB90E00E94D8
:10129000AE0D6091470185E090E00E94AE0D609137
:1012A000460189E090E00E94AE0D609145018CE01E
:1012B00090E00E94AE0D6091440184E190E00E94B4
:1012C000AE0D539823981092B4001092B30081E0B1
:1012D00080936D0180915E01811509F48BCE5BCF07
:1012E000833061F1843009F056CF20916B018091F9
:1012F0006401909163012330C1F010926C0123E0EE
:1013000020936B01909345018093440144CF9091C9
:101310006B01809161019130F9F010926C0191E0C4
:1013200090936B018093470136CF2091440128139D
:10133000E4CF209145012913E0CF2DCF90916B018F
:1013400080916201923069F010926C0192E090936A
:101350006B01809346011FCF909147019813DDCF19
:101360001ACF909146019813EFCF15CFFC018081E1
:101370002FEF3FEF2827022E2295207F2025032ED6
:10138000322F22952F700226269532272327220FEF
:10139000220F220F202581812827022E2295207FCF
:1013A0002025032E322F22952F70022626953227D4
:1013B0002327220F220F220F202582812827022E89
:1013C0002295207F2025032E322F22952F70022672
:1013D000269532272327220F220F220F20258381D3
:1013E0002827022E2295207F2025032E322F22959A
:1013F0002F700226269532272327220F220F220F35
:10140000202584812827022E2295207F2025032E47
:10141000322F22952F700226269532272327220F5E
:10142000220F220F202585812827022E2295207F3A
:101430002025032E322F22952F7002262695322743
:101440002327220F220F220F202586812827022EF4
:101450002295207F2025032E322F22952F700226E1
:10146000269532272327220F220F220F202587813E
:101470002827022E2295207F2025032E322F229509
:101480002F700226269532272327220F220F220FA4
:10149000202580852827022E2295207F2025032EB7
:1014A000322F22952F700226269532272327220FCE
:1014B000220F220F20254185C9018427082E8295FD
:1014C000807F8025092E982F82958F70082686951B
:1014D00098278927880F880F880F802508950FB6D1
:1014E000F894A4B1209154012A2B24B921E0309121
:1014F0005401203029F0000025B1232B25B904C068
:1015000000000000000000C0000000000000309556
:1015100025B1232325B92EEA2A95F1F72BEE30B712
:1015200035FF0AC0A4B930915401309525B1232369
:1015300025B90FBE80E0089500002A9581F721E0CB
:1015400030915401203029F0000025B1232B25B91A
:1015500004C000000000000000C000000000000007
:10156000309525B1232325B9000024E52A95F1F70C
:10157000FC018CE0619170E0660F771F6160726022
:101580009AE041E050E09A0126233723232B309143
:101590005401203029F0000025B1232B25B904C0C7
:1015A00000000000000000C00000000000003095B6
:1015B00025B1232325B9000021E52A95F1F7440F31
:1015C000551F9A9501F78A95A9F620B7206120BF8B
:1015D000A4B930915401309525B1232325B90FBE0C
:1015E00081E008950E94730060E670E08FE590E06E
:1015F0000E946A0180E090E00895A29FB001B39F2D
:10160000C001A39F700D811D1124911DB29F700D0B
:10161000811D1124911D089597FB072E16F4009447
:1016200007D077FD09D00E94260B07FC05D03EF4B9
:10163000909581959F4F0895709561957F4F08957E
:10164000EE0FFF1F0590F491E02D0994AA1BBB1B20
:1016500051E107C0AA1FBB1FA617B70710F0A61BB2
:10166000B70B881F991F5A95A9F780959095BC01D3
:10167000CD0108955058BB27AA270E94520B0C9405
:10168000A30C0E94950C38F00E949C0C20F039F4B9
:101690009F3F19F426F40C94920C0EF4E095E7FBAE
:1016A0000C948C0CE92F0E94B40C58F3BA17620703
:1016B00073078407950720F079F4A6F50C94D60CEF
:1016C0000EF4E0950B2EBA2FA02D0B01B90190015D
:1016D0000C01CA01A0011124FF27591B99F0593FA1
:1016E00050F4503E68F11A16F040A22F232F342FE9
:1016F0004427585FF3CF469537952795A795F04037
:101700005395C9F77EF41F16BA0B620B730B840B4B
:10171000BAF09150A1F0FF0FBB1F661F771F881F03
:10172000C2F70EC0BA0F621F731F841F48F487955B
:1017300077956795B795F7959E3F08F0B0CF93954D
:10174000880F08F09927EE0F9795879508950E94C6
:10175000BB0B0C94A30C0E949C0C58F00E94950C9F
:1017600040F029F45F3F29F00C948C0C51110C943B
:10177000D70C0C94920C0E94B40C68F39923B1F32B
:10178000552391F3951B550BBB27AA2762177307A7
:10179000840738F09F5F5F4F220F331F441FAA1F3B
:1017A000A9F335D00E2E3AF0E0E832D091505040F7
:1017B000E695001CCAF72BD0FE2F29D0660F771FA5
:1017C000881FBB1F261737074807AB07B0E809F08B
:1017D000BB0B802DBF01FF2793585F4F3AF09E3F10
:1017E000510578F00C948C0C0C94D70C5F3FE4F30B
:1017F000983ED4F3869577956795B795F7959F5F53
:10180000C9F7880F911D9695879597F90895E1E09E
:10181000660F771F881FBB1F621773078407BA07FD
:1018200020F0621B730B840BBA0BEE1F88F7E09558
:1018300008950E94200C6894B1110C94D70C08955F
:101840000E94BC0C88F09F5798F0B92F9927B75188
:10185000B0F0E1F0660F771F881F991F1AF0BA9554
:10186000C9F714C0B13091F00E94D60CB1E00895D0
:101870000C94D60C672F782F8827B85F39F0B93FC2
:10188000CCF3869577956795B395D9F73EF4909507
:101890008095709561957F4F8F4F9F4F0895E89485
:1018A00009C097FB3EF490958095709561957F4FA8
:1018B0008F4F9F4F9923A9F0F92F96E9BB27939556
:1018C000F695879577956795B795F111F8CFFAF466
:1018D000BB0F11F460FF1BC06F5F7F4F8F4F9F4F97
:1018E00016C0882311F096E911C0772321F09EE8F5
:1018F000872F762F05C0662371F096E8862F70E05B
:1019000060E02AF09A95660F771F881FDAF7880F34
:101910009695879597F9089597F99F6780E870E005
:1019200060E008959FEF80EC089500240A94161655
:10193000170618060906089500240A9412161306BD
:10194000140605060895092E0394000C11F488234B
:1019500052F0BB0F40F4BF2B11F460FF04C06F5F67
:101960007F4F8F4F9F4F089557FD9058440F551F3D
:1019700059F05F3F71F04795880F97FB991F61F011
:101980009F3F79F087950895121613061406551F88
:10199000F2CF4695F1DF08C0161617061806991FF4
:1019A000F1CF86957105610508940895E894BB27E9
:1019B00066277727CB0197F908950E94F00C0C94C5
:1019C000A30C0E94950C38F00E949C0C20F09523EB
:1019D00011F00C948C0C0C94920C11240C94D70CD8
:1019E0000E94B40C70F3959FC1F3950F50E0551F02
:1019F000629FF001729FBB27F00DB11D639FAA2764
:101A0000F00DB11DAA1F649F6627B00DA11D661FB2
:101A1000829F2227B00DA11D621F739FB00DA11DD3
:101A2000621F839FA00D611D221F749F3327A00D8D
:101A3000611D231F849F600D211D822F762F6A2F29
:101A400011249F5750409AF0F1F088234AF0EE0F8E
:101A5000FF1FBB1F661F771F881F91505040A9F7BB
:101A60009E3F510580F00C948C0C0C94D70C5F3F7A
:101A7000E4F3983ED4F3869577956795B795F795F7
:101A8000E7959F5FC1F7FE2B880F911D969587956F
:101A900097F90895AAE0B0E0E0E5FDE00C94FE0DB2
:101AA00089879A87FC016081718182819381009787
:101AB0007040604021F464E279ED8BE597E02DE120
:101AC00033EF41E050E00E94BC0D29833A834B8301
:101AD0005C839B01AC01A7EAB1E40E94DB0D6D833E
:101AE0007E838F839887ACEEB4EF29813A814B8156
:101AF0005C810E94E90D2D813E814F815885260F22
:101B0000371F481F591FC901DA01B7FF03C00197EA
:101B1000A109B048E985FA8580839183A283B383C4
:101B20009F772A96E2E00C941A0E0E944A0D0895BF
:101B300087E091E00E944A0D0895809307019093F9
:101B400008011092090110920A010895F999FECF37
:101B500092BD81BDF89A992780B50895262FF999ED
:101B6000FECF1FBA92BD81BD20BD0FB6F894FA9A80
:101B7000F99A0FBE01960895052E97FB1EF4009466
:101B80000E94D30D57FD07D00E94250E07FC03D0FD
:101B90004EF40C94D30D50954095309521953F4FC0
:101BA0004F4F5F4F089590958095709561957F4F49
:101BB0008F4F9F4F08950E94FD0AA59F900DB49FDF
:101BC000900DA49F800D911D11240895B7FF0C94D2
:101BD000DB0D0E94DB0D821B930B08952F923F9229
:101BE0004F925F926F927F928F929F92AF92BF922D
:101BF000CF92DF92EF92FF920F931F93CF93DF93D9
:101C0000CDB7DEB7CA1BDB0B0FB6F894DEBF0FBE35
:101C1000CDBF09942A88398848885F846E847D8482
:101C20008C849B84AA84B984C884DF80EE80FD8084
:101C30000C811B81AA81B981CE0FD11D0FB6F894FA
:101C4000DEBF0FBECDBFED010895A1E21A2EAA1B83
:101C5000BB1BFD010DC0AA1FBB1FEE1FFF1FA2175C
:101C6000B307E407F50720F0A21BB30BE40BF50B59
:101C7000661F771F881F991F1A9469F760957095E2
:101C8000809590959B01AC01BD01CF010895F8941A
:101C9000FFCFD401B8018C018201890132022702F1
:101CA0002C09FA07FA07290912090E090A09060977
:061CB0001509DA08B7086F
:0C1CB600AA72006F006E00010000000028
:00000001FF
