:107000000C9434380C9451380C9451380C945138F9
:107010000C9451380C9451380C9451380C945138CC
:107020000C9451380C9451380C9451380C94D0393C
:107030000C9451380C9451380C94AB390C94513851
:107040000C9451380C9451380C9451380C9451389C
:107050000C9451380C9451380C9451380C94F039EC
:107060000C9451380C94513811241FBECFEFD8E046
:10707000DEBFCDBF11E0A0E0B1E0E0ECF7E702C079
:1070800005900D92A630B107D9F721E0A6E0B1E056
:1070900001C01D92A63CB207E1F70E94913B0C94FF
:1070A000DE3B0C940038CF93DF9300D0CDB7DEB732
:1070B000FC0181858138F9F0823889F0803809F443
:1070C000E0C08091AB01811105C081E085BF15BE94
:1070D0000C9400000F900F90DF91CF910895808164
:1070E0008093AC019091AB01891779F30F900F90C9
:1070F000DF91CF910895E0932201F09323018081E5
:107100002091AA01821759F18093AA01818190E010
:1071100022813381DC01AA0FBB1FAC5DBE4F2D93D2
:107120003D9324813581DC01AA0FBB1FAA5DBE4FB0
:107130002D933D9326813781880F991FFC01E85DCF
:10714000FE4F2083318386E08093A8011092A9012D
:1071500080E10F900F90DF91CF910C94AC3940916A
:10716000A8015091A9014A5F5F4F818190E062813F
:107170007381DC01AA0FBB1FAC5DBE4F6D937D9385
:1071800064817581DC01AA0FBB1FAA5DBE4F6D93A0
:107190007D9366817781880F991FFC01E85DFE4F22
:1071A000608371834093A8015093A9014038510531
:1071B00078F2E22FE695E695E695F0E0EA5FFE4F7D
:1071C000808190E0322F377002C0959587953A956F
:1071D000E2F780FDBDCFF999FECF30E030FB922F72
:1071E00088279795879597F989839A8383E0E98122
:1071F000FA8187BFE89507B600FCFDCFA4E2B1E0B5
:1072000064EA71E03695322F22273795279524526C
:10721000314041E0F901EA0FFB1F8D919D910C0176
:1072200047BFE89511246A177B07A1F785E0E9813C
:10723000FA8187BFE89507B600FCFDCF81E1809316
:107240005700E8958CE00E94AC398091AA01E82FA4
:10725000E695E695E695F0E0EA5FFE4F877021E05F
:1072600001C0220F8A95EAF78081822B808380916A
:10727000AB018F5F8093AB019091AC0189132ACF52
:1072800024CF0C9400380F900F90DF91CF91089588
:1072900081E085BF15BE0C9400000895089580E03C
:1072A00090E008950895F89414B817B81AB815B86E
:1072B00018B81BB8529A5A9A14BC85E085BD8FEF56
:1072C00087BD82E080936E00109280001092810052
:1072D0002FE83BE0309389002093880080936F0073
:1072E0005398239891EA9093B0008093B100109244
:1072F000B4001092B3008BE080BF83E080937F00E6
:1073000086E080937C0083E880937A0080917A0005
:10731000806480937A0080917A0086FDFCCF109281
:107320007C0083EA80937A0081E080937B0090E088
:107330000E94D63B8F3F11F0809366001092B401FB
:1073400081E08093B3018093B2011092B101109259
:10735000B00178940895189580FF11C0559A81FF67
:1073600011C0549A82FF11C03B9A83FF11C03A9A10
:1073700084FF11C03D9A85FF11C03C9A089555982D
:1073800081FDEFCF549882FDEFCF3B9883FDEFCF87
:107390003A9884FDEFCF3D9885FDEFCF3C98089556
:1073A0001F921FB61F9211248F939F9310928100FA
:1073B000109285001092840081E08093B301809345
:1073C000B2011092B40110927C0093EA90937A007B
:1073D00080937B009F918F911F901FBE1F901895E7
:1073E0001F920F920FB60F9211242F933F934F933A
:1073F0005F936F937F938F939F93AF93BF93EF931D
:10740000FF93CF93DF9300D0CDB7DEB720918400F8
:107410003091850041E04093B4018091B301811522
:10742000B9F110928500109284004093810010926F
:10743000B0011092B3018091B2018115A1F0809149
:107440007A0086FDFCCF809178009091790080933E
:10745000B7019093B80181E080937C0093EA909308
:107460007A0080937B000F900F90DF91CF91FF9176
:10747000EF91BF91AF919F918F917F916F915F91AC
:107480004F913F912F910F900FBE0F901F90189525
:10749000C9018758910984379940A0F01092810062
:1074A00010928500109284004093B3014093B20182
:1074B0001092B40110927C0083EA80937A0040938A
:1074C0007B00D1CF26583109A4EFB0E00E94C73B22
:1074D000883008F45DC04093B3018091B2018111FE
:1074E00034C08091B001E091B101F0E0E754FE4F6B
:1074F00080838091B1018F5F8093B1018C3009F05E
:10750000B2CF1092810010928500109284004093B7
:10751000B2011092B4018091C3019091C40189839A
:107520009A8389EB91E00E94D83A29813A81281701
:10753000390709F098CFE0910401F091050165EB5E
:1075400071E089EB91E009958ECF80917A0086FDFC
:10755000FCCF80917800909179008093B501909351
:10756000B60110927C0083EA80937A0081E08093D8
:107570007B009091B0019115B1F0109281001092B2
:107580008500109284008093B2011092B4016BCFF9
:1075900021E001C0220F8A95EAF78091B001822B89
:1075A0008093B00160CF1092B2011092B1015BCF15
:1075B000FC0180812FEF3FEF2827022E2295207FAC
:1075C0002025032E322F22952F7002262695322752
:1075D0002327220F220F220F202581812827022E08
:1075E0002295207F2025032E322F22952F700226F0
:1075F000269532272327220F220F220F2025828152
:107600002827022E2295207F2025032E322F229517
:107610002F700226269532272327220F220F220FB2
:10762000202583812827022E2295207F2025032EC6
:10763000322F22952F700226269532272327220FDC
:10764000220F220F202584812827022E2295207FB9
:107650002025032E322F22952F70022626953227C1
:107660002327220F220F220F202585812827022E73
:107670002295207F2025032E322F22952F7002265F
:10768000269532272327220F220F220F20258681BD
:107690002827022E2295207F2025032E322F229587
:1076A0002F700226269532272327220F220F220F22
:1076B000202587812827022E2295207F2025032E32
:1076C000322F22952F700226269532272327220F4C
:1076D000220F220F202580852827022E2295207F29
:1076E0002025032E322F22952F7002262695322731
:1076F0002327220F220F220F20254185C90184272D
:10770000082E8295807F8025092E982F82958F7074
:107710000826869598278927880F880F880F802547
:107720000895F89481E085BF82E085BFE6E0F1E04E
:107730008CE1DF011D928A95E9F78CED8093AC0115
:107740001092AB011092AA011092A8011092A90107
:10775000789483E598E380930401909305010E9457
:10776000533980E30E94AC398FE097E20197F1F73B
:1077700000C0000080E00E94AC399FEFA9E6B8E1AC
:107780009150A040B040E1F700C00000EACFA29FB6
:10779000B001B39FC001A39F700D811D1124911DE5
:1077A000B29F700D811D1124911D0895F999FECF8E
:1077B00092BD81BDF89A992780B50895F894FFCFBE
:0677C00052394F394E3929
:040000030000700089
:00000001FF
