:107000000C9434380C9446380C9446380C9446381A
:107010000C9446380C9446380C9446380C944638F8
:107020000C9446380C9446380C9446380C944638E8
:107030000C9446380C9446380C9446380C944638D8
:107040000C9446380C9446380C9448380C944638C6
:107050000C9446380C9446380C9446380C944638B8
:107060000C9446380C94463811241FBECFEFD8E05C
:10707000DEBFCDBF22E0A0E0B1E001C01D92A03292
:10708000B207E1F70E94FE390C943B3C0C940038A7
:107090001F920F920FB60F9211242F933F934F938D
:1070A0005F936F937F938F939F93AF93BF93EF9370
:1070B000FF93CF93DF9300D000D0CDB7DEB7909190
:1070C000C60060919B01E62FF0E0E456FE4F808100
:1070D00020919A018227282F29276F5F643830F585
:1070E0006B831C82362F908320939A0130939B01EF
:1070F000EB81FC81E456FE4F20812535E1F00F90B5
:107100000F900F900F90DF91CF91FF91EF91BF9172
:10711000AF919F918F917F916F915F914F913F912F
:107120002F910F900FBE0F901F90189530E01B828B
:107130001C8260E0D8CF8913E2CF84E890E09C0104
:107140004B815C81241B350B29833A8370E06456A4
:107150007E4FA90186E191E00E94323C8B819C81A7
:10716000009749F0AC016CE971E089819A818A5EEF
:107170009E4F0E94323C81E0809314018091170160
:1071800080931501BCCFFC0180812FEF3FEF2827B2
:10719000022E2295207F2025032E322F22952F703C
:1071A0000226269532272327220F220F220F202581
:1071B00081812827022E2295207F2025032E322F21
:1071C00022952F700226269532272327220F220F81
:1071D000220F202582812827022E2295207F20251C
:1071E000032E322F22952F70022626953227232731
:1071F000220F220F220F202583812827022E22957D
:10720000207F2025032E322F22952F7002262695CF
:1072100032272327220F220F220F2025848128279F
:10722000022E2295207F2025032E322F22952F70AB
:107230000226269532272327220F220F220F2025F0
:1072400085812827022E2295207F2025032E322F8C
:1072500022952F700226269532272327220F220FF0
:10726000220F202586812827022E2295207F202587
:10727000032E322F22952F700226269532272327A0
:10728000220F220F220F202587812827022E2295E8
:10729000207F2025032E322F22952F70022626953F
:1072A00032272327220F220F220F2025808528270F
:1072B000022E2295207F2025032E322F22952F701B
:1072C0000226269532272327220F220F220F202560
:1072D0004185C9018427082E8295807F8025092E4B
:1072E000982F82958F700826869598278927880F72
:1072F000880F880F802508950FB6AAB12091130139
:107300002A2B2AB921E030911301203029F0000006
:107310002BB1232B2BB904C000000000000000C0DB
:1073200000000000000030952BB123232BB92EEA7A
:107330002A95F1F72BEE30B735FF0AC0AAB9309184
:10734000130130952BB123232BB90FBE80E0089594
:1073500000002A9581F721E030911301203029F0B7
:1073600000002BB1232B2BB904C00000000000004B
:1073700000C000000000000030952BB123232BB982
:10738000000024E52A95F1F7FC018CE0619170E0A2
:10739000660F771F616072609AE041E050E09A01E9
:1073A00026233723232B30911301203029F00000AE
:1073B0002BB1232B2BB904C000000000000000C03B
:1073C00000000000000030952BB123232BB90000F2
:1073D00021E52A95F1F7440F551F9A9501F78A95F3
:1073E000A9F620B7206120BFAAB9309113013095CA
:1073F0002BB123232BB90FBE81E00895F894549A42
:10740000389A40985C9880B7806880BF81E085BFDB
:1074100082E085BF8CE090E09093C5008093C4002B
:107420008091C0008D7F8093C0008091C2008660F3
:107430008093C2008091C10088698093C1007894D4
:1074400080E18093130184E0E82E81E0F82EE09241
:107450000201F0920301E0920001F0920101E0923A
:107460001001F0921101409A2FEF81EE94E021502B
:1074700080409040E1F700C000004098EFEFF1EE4F
:1074800024E0E150F0402040E1F700C00000409AC5
:107490008FEF91EEE4E081509040E040E1F700C0D2
:1074A00000004098FFEF21EE84E0F1502040804042
:1074B000E1F700C00000409A9FEFE1EEF4E0915048
:1074C000E040F040E1F700C0000040982FEF81EE6F
:1074D00094E0215080409040E1F700C00000409AC5
:1074E000EFEFF1EE24E0E150F0402040E1F700C082
:1074F000000040988FEF91EEE4E081509040E04032
:10750000E1F700C00000409AFFEF21EE84E0F15067
:1075100020408040E1F700C0000040989FEFE1EE7E
:10752000F4E09150E040F040E1F700C0000008E9CD
:1075300011E091E8B92EDD24D394809114018115D6
:10754000E1F31092140180911501843009F4A9C06F
:1075500098F4823009F4E8C0833009F457C08130D0
:1075600061F78091120191E0811190E090931201F6
:10757000811176C1409AE1CF853009F422C186306D
:10758000E1F6E0911001F0911101809118018083E2
:10759000E0911001F0911101809119018183E09136
:1075A0001001F091110180911A01828380911B01D9
:1075B000838380911C01848380911D018583809148
:1075C0001E01868380911F0187838091200180871F
:1075D00080912101818784E091E00E94C3388093EB
:1075E0000E0190930F0184E091E00E947C39409A53
:1075F0008FE697E10197F1F700C000004098EFE6B1
:10760000F7E13197F1F700C0000097CFE09110014A
:10761000F0911101809118018083E0911001F091A7
:107620001101809119018183E0911001F091110104
:1076300080911A01828380911B01838380911C01B8
:10764000848380911D01858380911E0186838091B2
:107650001F0187838091200180878091210181878C
:107660008091220182878091230183878091140178
:10767000811163CF84E091E00E947C39409A8FE6CB
:1076800097E10197F1F700C000004098EFE6F7E1BD
:107690003197F1F700C0000080911401811551F37A
:1076A0004CCFB0920D01E0910201F0910301809165
:1076B000180180831086F894C9E1D1E0A12C20C084
:1076C000A0910201B09103018A2D869511968D93A8
:1076D00086E0FE0101900D928A95E1F784E091E049
:1076E0000E94C33880930E0190930F0184E091E0D3
:1076F0000E947C39F6E0AF0E269624E8A21621F00F
:10770000809114018115E1F27894409A8FE19EE412
:107710000197F1F700C000004098EFE1FEE43197D7
:10772000F1F700C0000009CFE0911001F0911101C4
:10773000809118018083E0911001F09111018091F6
:1077400019018183E0911001F091110180911A01DA
:10775000828380911B01838380911C0184838091AB
:107760001D01858380911E01868380911F0187837F
:1077700080912001808780912101818784E091E0C0
:107780000E94C33880930E0190930F0180911401E1
:107790008111D3CE84E091E00E947C39409A8FE63B
:1077A00097E10197F1F700C000004098EFE6F7E19C
:1077B0003197F1F700C0000080911401811551F359
:1077C000BCCEF70129E011922A95E9F7D0920D017C
:1077D000F894C8E1D1E0A0910001B091010188E0E6
:1077E000FE0101900D928A95E1F7E0910001F09180
:1077F000010180819181892B79F482819381892B88
:1078000059F484819581892B39F48681811104C0D2
:1078100087819085892BA1F084E091E00E94C33894
:1078200080930E0190930F0184E091E00E947C39D7
:1078300085E88A95F1F7000028960C171D0759F680
:107840007894409AEFE1FEE43197F1F700C0000030
:1078500040988FE19EE40197F1F700C000006DCEE3
:1078600040986BCEFB01DC0102C001900D924150AB
:0A7870005040D8F70895F894FFCFB8
:040000030000700089
:00000001FF
